{
  "contractName": "RFT",
  "abi": [
    {
      "inputs": [
        {
          "internalType": "string",
          "name": "_name",
          "type": "string"
        },
        {
          "internalType": "string",
          "name": "_symbol",
          "type": "string"
        },
        {
          "internalType": "address",
          "name": "_nftAddress",
          "type": "address"
        },
        {
          "internalType": "uint256",
          "name": "_nftId",
          "type": "uint256"
        },
        {
          "internalType": "uint256",
          "name": "_icoSharePrice",
          "type": "uint256"
        },
        {
          "internalType": "uint256",
          "name": "_icoShareSupply",
          "type": "uint256"
        },
        {
          "internalType": "address",
          "name": "_daiAddress",
          "type": "address"
        }
      ],
      "stateMutability": "nonpayable",
      "type": "constructor"
    },
    {
      "anonymous": false,
      "inputs": [
        {
          "indexed": true,
          "internalType": "address",
          "name": "owner",
          "type": "address"
        },
        {
          "indexed": true,
          "internalType": "address",
          "name": "spender",
          "type": "address"
        },
        {
          "indexed": false,
          "internalType": "uint256",
          "name": "value",
          "type": "uint256"
        }
      ],
      "name": "Approval",
      "type": "event"
    },
    {
      "anonymous": false,
      "inputs": [
        {
          "indexed": true,
          "internalType": "address",
          "name": "from",
          "type": "address"
        },
        {
          "indexed": true,
          "internalType": "address",
          "name": "to",
          "type": "address"
        },
        {
          "indexed": false,
          "internalType": "uint256",
          "name": "value",
          "type": "uint256"
        }
      ],
      "name": "Transfer",
      "type": "event"
    },
    {
      "inputs": [],
      "name": "admin",
      "outputs": [
        {
          "internalType": "address",
          "name": "",
          "type": "address"
        }
      ],
      "stateMutability": "view",
      "type": "function"
    },
    {
      "inputs": [
        {
          "internalType": "address",
          "name": "owner",
          "type": "address"
        },
        {
          "internalType": "address",
          "name": "spender",
          "type": "address"
        }
      ],
      "name": "allowance",
      "outputs": [
        {
          "internalType": "uint256",
          "name": "",
          "type": "uint256"
        }
      ],
      "stateMutability": "view",
      "type": "function"
    },
    {
      "inputs": [
        {
          "internalType": "address",
          "name": "spender",
          "type": "address"
        },
        {
          "internalType": "uint256",
          "name": "amount",
          "type": "uint256"
        }
      ],
      "name": "approve",
      "outputs": [
        {
          "internalType": "bool",
          "name": "",
          "type": "bool"
        }
      ],
      "stateMutability": "nonpayable",
      "type": "function"
    },
    {
      "inputs": [
        {
          "internalType": "address",
          "name": "account",
          "type": "address"
        }
      ],
      "name": "balanceOf",
      "outputs": [
        {
          "internalType": "uint256",
          "name": "",
          "type": "uint256"
        }
      ],
      "stateMutability": "view",
      "type": "function"
    },
    {
      "inputs": [],
      "name": "dai",
      "outputs": [
        {
          "internalType": "contract IERC20",
          "name": "",
          "type": "address"
        }
      ],
      "stateMutability": "view",
      "type": "function"
    },
    {
      "inputs": [],
      "name": "decimals",
      "outputs": [
        {
          "internalType": "uint8",
          "name": "",
          "type": "uint8"
        }
      ],
      "stateMutability": "view",
      "type": "function"
    },
    {
      "inputs": [
        {
          "internalType": "address",
          "name": "spender",
          "type": "address"
        },
        {
          "internalType": "uint256",
          "name": "subtractedValue",
          "type": "uint256"
        }
      ],
      "name": "decreaseAllowance",
      "outputs": [
        {
          "internalType": "bool",
          "name": "",
          "type": "bool"
        }
      ],
      "stateMutability": "nonpayable",
      "type": "function"
    },
    {
      "inputs": [],
      "name": "icoEnd",
      "outputs": [
        {
          "internalType": "uint256",
          "name": "",
          "type": "uint256"
        }
      ],
      "stateMutability": "view",
      "type": "function"
    },
    {
      "inputs": [],
      "name": "icoSharePrice",
      "outputs": [
        {
          "internalType": "uint256",
          "name": "",
          "type": "uint256"
        }
      ],
      "stateMutability": "view",
      "type": "function"
    },
    {
      "inputs": [],
      "name": "icoShareSupply",
      "outputs": [
        {
          "internalType": "uint256",
          "name": "",
          "type": "uint256"
        }
      ],
      "stateMutability": "view",
      "type": "function"
    },
    {
      "inputs": [
        {
          "internalType": "address",
          "name": "spender",
          "type": "address"
        },
        {
          "internalType": "uint256",
          "name": "addedValue",
          "type": "uint256"
        }
      ],
      "name": "increaseAllowance",
      "outputs": [
        {
          "internalType": "bool",
          "name": "",
          "type": "bool"
        }
      ],
      "stateMutability": "nonpayable",
      "type": "function"
    },
    {
      "inputs": [],
      "name": "name",
      "outputs": [
        {
          "internalType": "string",
          "name": "",
          "type": "string"
        }
      ],
      "stateMutability": "view",
      "type": "function"
    },
    {
      "inputs": [],
      "name": "nft",
      "outputs": [
        {
          "internalType": "contract IERC721",
          "name": "",
          "type": "address"
        }
      ],
      "stateMutability": "view",
      "type": "function"
    },
    {
      "inputs": [],
      "name": "nftId",
      "outputs": [
        {
          "internalType": "uint256",
          "name": "",
          "type": "uint256"
        }
      ],
      "stateMutability": "view",
      "type": "function"
    },
    {
      "inputs": [],
      "name": "symbol",
      "outputs": [
        {
          "internalType": "string",
          "name": "",
          "type": "string"
        }
      ],
      "stateMutability": "view",
      "type": "function"
    },
    {
      "inputs": [],
      "name": "totalSupply",
      "outputs": [
        {
          "internalType": "uint256",
          "name": "",
          "type": "uint256"
        }
      ],
      "stateMutability": "view",
      "type": "function"
    },
    {
      "inputs": [
        {
          "internalType": "address",
          "name": "recipient",
          "type": "address"
        },
        {
          "internalType": "uint256",
          "name": "amount",
          "type": "uint256"
        }
      ],
      "name": "transfer",
      "outputs": [
        {
          "internalType": "bool",
          "name": "",
          "type": "bool"
        }
      ],
      "stateMutability": "nonpayable",
      "type": "function"
    },
    {
      "inputs": [
        {
          "internalType": "address",
          "name": "sender",
          "type": "address"
        },
        {
          "internalType": "address",
          "name": "recipient",
          "type": "address"
        },
        {
          "internalType": "uint256",
          "name": "amount",
          "type": "uint256"
        }
      ],
      "name": "transferFrom",
      "outputs": [
        {
          "internalType": "bool",
          "name": "",
          "type": "bool"
        }
      ],
      "stateMutability": "nonpayable",
      "type": "function"
    },
    {
      "inputs": [],
      "name": "startResale",
      "outputs": [],
      "stateMutability": "nonpayable",
      "type": "function"
    },
    {
      "inputs": [
        {
          "internalType": "uint256",
          "name": "shareAmount",
          "type": "uint256"
        }
      ],
      "name": "buyShare",
      "outputs": [],
      "stateMutability": "nonpayable",
      "type": "function"
    },
    {
      "inputs": [],
      "name": "withdrawIcoProfits",
      "outputs": [],
      "stateMutability": "nonpayable",
      "type": "function"
    }
  ],
  "bytecode": "0x60806040523480156200001157600080fd5b506040516200263d3803806200263d8339818101604052810190620000379190620002a2565b868681600390805190602001906200005192919062000152565b5080600490805190602001906200006a92919062000152565b5050508360088190555084600960006101000a81548173ffffffffffffffffffffffffffffffffffffffff021916908373ffffffffffffffffffffffffffffffffffffffff160217905550826005819055508160068190555080600a60006101000a81548173ffffffffffffffffffffffffffffffffffffffff021916908373ffffffffffffffffffffffffffffffffffffffff16021790555033600b60006101000a81548173ffffffffffffffffffffffffffffffffffffffff021916908373ffffffffffffffffffffffffffffffffffffffff1602179055505050505050505062000524565b82805462000160906200045c565b90600052602060002090601f016020900481019282620001845760008555620001d0565b82601f106200019f57805160ff1916838001178555620001d0565b82800160010185558215620001d0579182015b82811115620001cf578251825591602001919060010190620001b2565b5b509050620001df9190620001e3565b5090565b5b80821115620001fe576000816000905550600101620001e4565b5090565b6000620002196200021384620003b5565b62000381565b9050828152602081018484840111156200023257600080fd5b6200023f84828562000426565b509392505050565b6000815190506200025881620004f0565b92915050565b600082601f8301126200027057600080fd5b81516200028284826020860162000202565b91505092915050565b6000815190506200029c816200050a565b92915050565b600080600080600080600060e0888a031215620002be57600080fd5b600088015167ffffffffffffffff811115620002d957600080fd5b620002e78a828b016200025e565b975050602088015167ffffffffffffffff8111156200030557600080fd5b620003138a828b016200025e565b9650506040620003268a828b0162000247565b9550506060620003398a828b016200028b565b94505060806200034c8a828b016200028b565b93505060a06200035f8a828b016200028b565b92505060c0620003728a828b0162000247565b91505092959891949750929550565b6000604051905081810181811067ffffffffffffffff82111715620003ab57620003aa620004c1565b5b8060405250919050565b600067ffffffffffffffff821115620003d357620003d2620004c1565b5b601f19601f8301169050602081019050919050565b6000620003f582620003fc565b9050919050565b600073ffffffffffffffffffffffffffffffffffffffff82169050919050565b6000819050919050565b60005b838110156200044657808201518184015260208101905062000429565b8381111562000456576000848401525b50505050565b600060028204905060018216806200047557607f821691505b602082108114156200048c576200048b62000492565b5b50919050565b7f4e487b7100000000000000000000000000000000000000000000000000000000600052602260045260246000fd5b7f4e487b7100000000000000000000000000000000000000000000000000000000600052604160045260246000fd5b620004fb81620003e8565b81146200050757600080fd5b50565b62000515816200041c565b81146200052157600080fd5b50565b61210980620005346000396000f3fe608060405234801561001057600080fd5b50600436106101375760003560e01c806370a08231116100b8578063b19253691161007c578063b192536914610354578063c6bc51821461035e578063dd62ed3e1461037c578063f4b9fa75146103ac578063f851a440146103ca578063ff83ab29146103e857610137565b806370a082311461028a57806395d89b41146102ba578063a457c2d7146102d8578063a9059cbb14610308578063a9ed6e9a1461033857610137565b806323b872dd116100ff57806323b872dd146101d0578063313ce56714610200578063395093511461021e57806347ccca021461024e57806357b6e9661461026c57610137565b80630563451a1461013c57806306fdde031461015a578063095ea7b31461017857806318160ddd146101a85780631fed217d146101c6575b600080fd5b610144610406565b6040516101519190611de7565b60405180910390f35b61016261040c565b60405161016f9190611c25565b60405180910390f35b610192600480360381019061018d91906115c5565b61049e565b60405161019f9190611bd4565b60405180910390f35b6101b06104bc565b6040516101bd9190611de7565b60405180910390f35b6101ce6104c6565b005b6101ea60048036038101906101e59190611576565b610778565b6040516101f79190611bd4565b60405180910390f35b610208610879565b6040516102159190611e02565b60405180910390f35b610238600480360381019061023391906115c5565b610882565b6040516102459190611bd4565b60405180910390f35b61025661092e565b6040516102639190611c0a565b60405180910390f35b610274610954565b6040516102819190611de7565b60405180910390f35b6102a4600480360381019061029f9190611511565b61095a565b6040516102b19190611de7565b60405180910390f35b6102c26109a2565b6040516102cf9190611c25565b60405180910390f35b6102f260048036038101906102ed91906115c5565b610a34565b6040516102ff9190611bd4565b60405180910390f35b610322600480360381019061031d91906115c5565b610b28565b60405161032f9190611bd4565b60405180910390f35b610352600480360381019061034d919061162a565b610b46565b005b61035c610cf9565b005b610366610e33565b6040516103739190611de7565b60405180910390f35b6103966004803603810190610391919061153a565b610e39565b6040516103a39190611de7565b60405180910390f35b6103b4610ec0565b6040516103c19190611bef565b60405180910390f35b6103d2610ee6565b6040516103df9190611b59565b60405180910390f35b6103f0610f0c565b6040516103fd9190611de7565b60405180910390f35b60075481565b60606003805461041b90611fed565b80601f016020809104026020016040519081016040528092919081815260200182805461044790611fed565b80156104945780601f1061046957610100808354040283529160200191610494565b820191906000526020600020905b81548152906001019060200180831161047757829003601f168201915b5050505050905090565b60006104b26104ab610f12565b8484610f1a565b6001905092915050565b6000600254905090565b600b60009054906101000a900473ffffffffffffffffffffffffffffffffffffffff1673ffffffffffffffffffffffffffffffffffffffff163373ffffffffffffffffffffffffffffffffffffffff1614610556576040517f08c379a000000000000000000000000000000000000000000000000000000000815260040161054d90611cc7565b60405180910390fd5b600754421161059a576040517f08c379a000000000000000000000000000000000000000000000000000000000815260040161059190611ce7565b60405180910390fd5b6000600a60009054906101000a900473ffffffffffffffffffffffffffffffffffffffff1673ffffffffffffffffffffffffffffffffffffffff166370a08231306040518263ffffffff1660e01b81526004016105f79190611b59565b60206040518083038186803b15801561060f57600080fd5b505afa158015610623573d6000803e3d6000fd5b505050506040513d601f19601f820116820180604052508101906106479190611653565b9050600081111561072557600a60009054906101000a900473ffffffffffffffffffffffffffffffffffffffff1673ffffffffffffffffffffffffffffffffffffffff1663a9059cbb600b60009054906101000a900473ffffffffffffffffffffffffffffffffffffffff16836040518363ffffffff1660e01b81526004016106d1929190611bab565b602060405180830381600087803b1580156106eb57600080fd5b505af11580156106ff573d6000803e3d6000fd5b505050506040513d601f19601f820116820180604052508101906107239190611601565b505b600061072f6104bc565b60065461073c9190611ee9565b9050600081111561077457610773600b60009054906101000a900473ffffffffffffffffffffffffffffffffffffffff16826110e5565b5b5050565b6000610785848484611239565b6000600160008673ffffffffffffffffffffffffffffffffffffffff1673ffffffffffffffffffffffffffffffffffffffff16815260200190815260200160002060006107d0610f12565b73ffffffffffffffffffffffffffffffffffffffff1673ffffffffffffffffffffffffffffffffffffffff16815260200190815260200160002054905082811015610850576040517f08c379a000000000000000000000000000000000000000000000000000000000815260040161084790611d07565b60405180910390fd5b61086d8561085c610f12565b85846108689190611ee9565b610f1a565b60019150509392505050565b60006012905090565b600061092461088f610f12565b84846001600061089d610f12565b73ffffffffffffffffffffffffffffffffffffffff1673ffffffffffffffffffffffffffffffffffffffff16815260200190815260200160002060008873ffffffffffffffffffffffffffffffffffffffff1673ffffffffffffffffffffffffffffffffffffffff1681526020019081526020016000205461091f9190611e39565b610f1a565b6001905092915050565b600960009054906101000a900473ffffffffffffffffffffffffffffffffffffffff1681565b60055481565b60008060008373ffffffffffffffffffffffffffffffffffffffff1673ffffffffffffffffffffffffffffffffffffffff168152602001908152602001600020549050919050565b6060600480546109b190611fed565b80601f01602080910402602001604051908101604052809291908181526020018280546109dd90611fed565b8015610a2a5780601f106109ff57610100808354040283529160200191610a2a565b820191906000526020600020905b815481529060010190602001808311610a0d57829003601f168201915b5050505050905090565b60008060016000610a43610f12565b73ffffffffffffffffffffffffffffffffffffffff1673ffffffffffffffffffffffffffffffffffffffff16815260200190815260200160002060008573ffffffffffffffffffffffffffffffffffffffff1673ffffffffffffffffffffffffffffffffffffffff16815260200190815260200160002054905082811015610b00576040517f08c379a0000000000000000000000000000000000000000000000000000000008152600401610af790611da7565b60405180910390fd5b610b1d610b0b610f12565b858584610b189190611ee9565b610f1a565b600191505092915050565b6000610b3c610b35610f12565b8484611239565b6001905092915050565b600060075411610b8b576040517f08c379a0000000000000000000000000000000000000000000000000000000008152600401610b8290611d67565b60405180910390fd5b600754421115610bd0576040517f08c379a0000000000000000000000000000000000000000000000000000000008152600401610bc790611c87565b60405180910390fd5b60065481610bdc6104bc565b610be69190611e39565b1115610c27576040517f08c379a0000000000000000000000000000000000000000000000000000000008152600401610c1e90611d87565b60405180910390fd5b600060055482610c379190611e8f565b9050600a60009054906101000a900473ffffffffffffffffffffffffffffffffffffffff1673ffffffffffffffffffffffffffffffffffffffff166323b872dd3330846040518463ffffffff1660e01b8152600401610c9893929190611b74565b602060405180830381600087803b158015610cb257600080fd5b505af1158015610cc6573d6000803e3d6000fd5b505050506040513d601f19601f82011682018060405250810190610cea9190611601565b50610cf533836110e5565b5050565b600b60009054906101000a900473ffffffffffffffffffffffffffffffffffffffff1673ffffffffffffffffffffffffffffffffffffffff163373ffffffffffffffffffffffffffffffffffffffff1614610d89576040517f08c379a0000000000000000000000000000000000000000000000000000000008152600401610d8090611cc7565b60405180910390fd5b600960009054906101000a900473ffffffffffffffffffffffffffffffffffffffff1673ffffffffffffffffffffffffffffffffffffffff166323b872dd33306008546040518463ffffffff1660e01b8152600401610dea93929190611b74565b600060405180830381600087803b158015610e0457600080fd5b505af1158015610e18573d6000803e3d6000fd5b5050505062093a8042610e2b9190611e39565b600781905550565b60085481565b6000600160008473ffffffffffffffffffffffffffffffffffffffff1673ffffffffffffffffffffffffffffffffffffffff16815260200190815260200160002060008373ffffffffffffffffffffffffffffffffffffffff1673ffffffffffffffffffffffffffffffffffffffff16815260200190815260200160002054905092915050565b600a60009054906101000a900473ffffffffffffffffffffffffffffffffffffffff1681565b600b60009054906101000a900473ffffffffffffffffffffffffffffffffffffffff1681565b60065481565b600033905090565b600073ffffffffffffffffffffffffffffffffffffffff168373ffffffffffffffffffffffffffffffffffffffff161415610f8a576040517f08c379a0000000000000000000000000000000000000000000000000000000008152600401610f8190611d47565b60405180910390fd5b600073ffffffffffffffffffffffffffffffffffffffff168273ffffffffffffffffffffffffffffffffffffffff161415610ffa576040517f08c379a0000000000000000000000000000000000000000000000000000000008152600401610ff190611c67565b60405180910390fd5b80600160008573ffffffffffffffffffffffffffffffffffffffff1673ffffffffffffffffffffffffffffffffffffffff16815260200190815260200160002060008473ffffffffffffffffffffffffffffffffffffffff1673ffffffffffffffffffffffffffffffffffffffff168152602001908152602001600020819055508173ffffffffffffffffffffffffffffffffffffffff168373ffffffffffffffffffffffffffffffffffffffff167f8c5be1e5ebec7d5bd14f71427d1e84f3dd0314c0f7b2291e5b200ac8c7c3b925836040516110d89190611de7565b60405180910390a3505050565b600073ffffffffffffffffffffffffffffffffffffffff168273ffffffffffffffffffffffffffffffffffffffff161415611155576040517f08c379a000000000000000000000000000000000000000000000000000000000815260040161114c90611dc7565b60405180910390fd5b611161600083836114b8565b80600260008282546111739190611e39565b92505081905550806000808473ffffffffffffffffffffffffffffffffffffffff1673ffffffffffffffffffffffffffffffffffffffff16815260200190815260200160002060008282546111c89190611e39565b925050819055508173ffffffffffffffffffffffffffffffffffffffff16600073ffffffffffffffffffffffffffffffffffffffff167fddf252ad1be2c89b69c2b068fc378daa952ba7f163c4a11628f55a4df523b3ef8360405161122d9190611de7565b60405180910390a35050565b600073ffffffffffffffffffffffffffffffffffffffff168373ffffffffffffffffffffffffffffffffffffffff1614156112a9576040517f08c379a00000000000000000000000000000000000000000000000000000000081526004016112a090611d27565b60405180910390fd5b600073ffffffffffffffffffffffffffffffffffffffff168273ffffffffffffffffffffffffffffffffffffffff161415611319576040517f08c379a000000000000000000000000000000000000000000000000000000000815260040161131090611c47565b60405180910390fd5b6113248383836114b8565b60008060008573ffffffffffffffffffffffffffffffffffffffff1673ffffffffffffffffffffffffffffffffffffffff168152602001908152602001600020549050818110156113aa576040517f08c379a00000000000000000000000000000000000000000000000000000000081526004016113a190611ca7565b60405180910390fd5b81816113b69190611ee9565b6000808673ffffffffffffffffffffffffffffffffffffffff1673ffffffffffffffffffffffffffffffffffffffff16815260200190815260200160002081905550816000808573ffffffffffffffffffffffffffffffffffffffff1673ffffffffffffffffffffffffffffffffffffffff16815260200190815260200160002060008282546114469190611e39565b925050819055508273ffffffffffffffffffffffffffffffffffffffff168473ffffffffffffffffffffffffffffffffffffffff167fddf252ad1be2c89b69c2b068fc378daa952ba7f163c4a11628f55a4df523b3ef846040516114aa9190611de7565b60405180910390a350505050565b505050565b6000813590506114cc8161208e565b92915050565b6000815190506114e1816120a5565b92915050565b6000813590506114f6816120bc565b92915050565b60008151905061150b816120bc565b92915050565b60006020828403121561152357600080fd5b6000611531848285016114bd565b91505092915050565b6000806040838503121561154d57600080fd5b600061155b858286016114bd565b925050602061156c858286016114bd565b9150509250929050565b60008060006060848603121561158b57600080fd5b6000611599868287016114bd565b93505060206115aa868287016114bd565b92505060406115bb868287016114e7565b9150509250925092565b600080604083850312156115d857600080fd5b60006115e6858286016114bd565b92505060206115f7858286016114e7565b9150509250929050565b60006020828403121561161357600080fd5b6000611621848285016114d2565b91505092915050565b60006020828403121561163c57600080fd5b600061164a848285016114e7565b91505092915050565b60006020828403121561166557600080fd5b6000611673848285016114fc565b91505092915050565b61168581611f1d565b82525050565b61169481611f2f565b82525050565b6116a381611f72565b82525050565b6116b281611f96565b82525050565b60006116c382611e1d565b6116cd8185611e28565b93506116dd818560208601611fba565b6116e68161207d565b840191505092915050565b60006116fe602383611e28565b91507f45524332303a207472616e7366657220746f20746865207a65726f206164647260008301527f65737300000000000000000000000000000000000000000000000000000000006020830152604082019050919050565b6000611764602283611e28565b91507f45524332303a20617070726f766520746f20746865207a65726f20616464726560008301527f73730000000000000000000000000000000000000000000000000000000000006020830152604082019050919050565b60006117ca600f83611e28565b91507f49434f2069732066696e697368656400000000000000000000000000000000006000830152602082019050919050565b600061180a602683611e28565b91507f45524332303a207472616e7366657220616d6f756e742065786365656473206260008301527f616c616e636500000000000000000000000000000000000000000000000000006020830152604082019050919050565b6000611870600a83611e28565b91507f6f6e6c792061646d696e000000000000000000000000000000000000000000006000830152602082019050919050565b60006118b0601483611e28565b91507f49434f206e6f742066696e6973686564207965740000000000000000000000006000830152602082019050919050565b60006118f0602883611e28565b91507f45524332303a207472616e7366657220616d6f756e742065786365656473206160008301527f6c6c6f77616e63650000000000000000000000000000000000000000000000006020830152604082019050919050565b6000611956602583611e28565b91507f45524332303a207472616e736665722066726f6d20746865207a65726f20616460008301527f64726573730000000000000000000000000000000000000000000000000000006020830152604082019050919050565b60006119bc602483611e28565b91507f45524332303a20617070726f76652066726f6d20746865207a65726f2061646460008301527f72657373000000000000000000000000000000000000000000000000000000006020830152604082019050919050565b6000611a22601383611e28565b91507f49434f206e6f74207374617274656420796574000000000000000000000000006000830152602082019050919050565b6000611a62601683611e28565b91507f6e6f7420656e6f75676820736861726573206c656674000000000000000000006000830152602082019050919050565b6000611aa2602583611e28565b91507f45524332303a2064656372656173656420616c6c6f77616e63652062656c6f7760008301527f207a65726f0000000000000000000000000000000000000000000000000000006020830152604082019050919050565b6000611b08601f83611e28565b91507f45524332303a206d696e7420746f20746865207a65726f2061646472657373006000830152602082019050919050565b611b4481611f5b565b82525050565b611b5381611f65565b82525050565b6000602082019050611b6e600083018461167c565b92915050565b6000606082019050611b89600083018661167c565b611b96602083018561167c565b611ba36040830184611b3b565b949350505050565b6000604082019050611bc0600083018561167c565b611bcd6020830184611b3b565b9392505050565b6000602082019050611be9600083018461168b565b92915050565b6000602082019050611c04600083018461169a565b92915050565b6000602082019050611c1f60008301846116a9565b92915050565b60006020820190508181036000830152611c3f81846116b8565b905092915050565b60006020820190508181036000830152611c60816116f1565b9050919050565b60006020820190508181036000830152611c8081611757565b9050919050565b60006020820190508181036000830152611ca0816117bd565b9050919050565b60006020820190508181036000830152611cc0816117fd565b9050919050565b60006020820190508181036000830152611ce081611863565b9050919050565b60006020820190508181036000830152611d00816118a3565b9050919050565b60006020820190508181036000830152611d20816118e3565b9050919050565b60006020820190508181036000830152611d4081611949565b9050919050565b60006020820190508181036000830152611d60816119af565b9050919050565b60006020820190508181036000830152611d8081611a15565b9050919050565b60006020820190508181036000830152611da081611a55565b9050919050565b60006020820190508181036000830152611dc081611a95565b9050919050565b60006020820190508181036000830152611de081611afb565b9050919050565b6000602082019050611dfc6000830184611b3b565b92915050565b6000602082019050611e176000830184611b4a565b92915050565b600081519050919050565b600082825260208201905092915050565b6000611e4482611f5b565b9150611e4f83611f5b565b9250827fffffffffffffffffffffffffffffffffffffffffffffffffffffffffffffffff03821115611e8457611e8361201f565b5b828201905092915050565b6000611e9a82611f5b565b9150611ea583611f5b565b9250817fffffffffffffffffffffffffffffffffffffffffffffffffffffffffffffffff0483118215151615611ede57611edd61201f565b5b828202905092915050565b6000611ef482611f5b565b9150611eff83611f5b565b925082821015611f1257611f1161201f565b5b828203905092915050565b6000611f2882611f3b565b9050919050565b60008115159050919050565b600073ffffffffffffffffffffffffffffffffffffffff82169050919050565b6000819050919050565b600060ff82169050919050565b6000611f7d82611f84565b9050919050565b6000611f8f82611f3b565b9050919050565b6000611fa182611fa8565b9050919050565b6000611fb382611f3b565b9050919050565b60005b83811015611fd8578082015181840152602081019050611fbd565b83811115611fe7576000848401525b50505050565b6000600282049050600182168061200557607f821691505b602082108114156120195761201861204e565b5b50919050565b7f4e487b7100000000000000000000000000000000000000000000000000000000600052601160045260246000fd5b7f4e487b7100000000000000000000000000000000000000000000000000000000600052602260045260246000fd5b6000601f19601f8301169050919050565b61209781611f1d565b81146120a257600080fd5b50565b6120ae81611f2f565b81146120b957600080fd5b50565b6120c581611f5b565b81146120d057600080fd5b5056fea26469706673582212207003ba0a2318a2dd301b0ea6825e7aa12d8d4bbffbdfb216d2043034241d93b364736f6c63430008000033",
  "immutableReferences": {},
  "source": "pragma solidity ^0.8.0;\n\nimport '@openzeppelin/contracts/token/ERC721/IERC721.sol';\nimport '@openzeppelin/contracts/token/ERC20/IERC20.sol';\nimport '@openzeppelin/contracts/token/ERC20/ERC20.sol';\n\ncontract RFT is ERC20 {\n  //ICO & shares\n  uint public icoSharePrice;\n  uint public icoShareSupply;\n  uint public icoEnd;\n\n  //NFT & DAI\n  uint public nftId;\n  IERC721 public nft;\n  IERC20 public dai;\n\n  //other\n  address public admin;\n\n  constructor(\n    string memory _name,\n    string memory _symbol,\n    address _nftAddress, \n    uint _nftId,\n    uint _icoSharePrice,\n    uint _icoShareSupply,\n    address _daiAddress\n  ) \n  ERC20(_name, _symbol) \n  {\n    nftId = _nftId;\n    nft = IERC721(_nftAddress);\n    icoSharePrice = _icoSharePrice; \n    icoShareSupply = _icoShareSupply;\n    dai = IERC20(_daiAddress);\n    admin = msg.sender;\n  }\n\n  //       \n  //       \n  function startResale() external {\n       require(msg.sender == admin, 'only admin');\n        nft.transferFrom(msg.sender, address(this), nftId);\n        icoEnd = block.timestamp + 7 * 86400;\n  }\n\n  //    \n  function buyShare(uint shareAmount) external {\n    require(icoEnd > 0, 'ICO not started yet');\n    require(block.timestamp <= icoEnd, 'ICO is finished');\n    require(totalSupply() + shareAmount <= icoShareSupply, 'not enough shares left');\n    uint daiAmount = shareAmount * icoSharePrice;\n    dai.transferFrom(msg.sender, address(this), daiAmount);\n    _mint(msg.sender, shareAmount);\n  }\n\n  //   \n  function withdrawIcoProfits() external {\n    require(msg.sender == admin, 'only admin');\n    require(block.timestamp > icoEnd, 'ICO not finished yet'); \n    uint daiBalance = dai.balanceOf(address(this));\n    if(daiBalance > 0) {\n      dai.transfer(admin, daiBalance);\n    }\n    uint unsoldShareBalance = icoShareSupply - totalSupply();\n    if(unsoldShareBalance > 0) {\n      _mint(admin, unsoldShareBalance);\n    }\n  }\n}",
  "sourcePath": "/home/gpudog/defi2.0/nft/contracts/ReNFT.sol",
  "compiler": {
    "name": "solc",
    "version": "0.8.0+commit.c7dfd78e.Emscripten.clang"
  },
  "schemaVersion": "3.3.4",
  "updatedAt": "2021-06-26T22:51:26.254Z",
  "devdoc": {
    "kind": "dev",
    "methods": {
      "allowance(address,address)": {
        "details": "See {IERC20-allowance}."
      },
      "approve(address,uint256)": {
        "details": "See {IERC20-approve}. Requirements: - `spender` cannot be the zero address."
      },
      "balanceOf(address)": {
        "details": "See {IERC20-balanceOf}."
      },
      "decimals()": {
        "details": "Returns the number of decimals used to get its user representation. For example, if `decimals` equals `2`, a balance of `505` tokens should be displayed to a user as `5,05` (`505 / 10 ** 2`). Tokens usually opt for a value of 18, imitating the relationship between Ether and Wei. This is the value {ERC20} uses, unless this function is overridden; NOTE: This information is only used for _display_ purposes: it in no way affects any of the arithmetic of the contract, including {IERC20-balanceOf} and {IERC20-transfer}."
      },
      "decreaseAllowance(address,uint256)": {
        "details": "Atomically decreases the allowance granted to `spender` by the caller. This is an alternative to {approve} that can be used as a mitigation for problems described in {IERC20-approve}. Emits an {Approval} event indicating the updated allowance. Requirements: - `spender` cannot be the zero address. - `spender` must have allowance for the caller of at least `subtractedValue`."
      },
      "increaseAllowance(address,uint256)": {
        "details": "Atomically increases the allowance granted to `spender` by the caller. This is an alternative to {approve} that can be used as a mitigation for problems described in {IERC20-approve}. Emits an {Approval} event indicating the updated allowance. Requirements: - `spender` cannot be the zero address."
      },
      "name()": {
        "details": "Returns the name of the token."
      },
      "symbol()": {
        "details": "Returns the symbol of the token, usually a shorter version of the name."
      },
      "totalSupply()": {
        "details": "See {IERC20-totalSupply}."
      },
      "transfer(address,uint256)": {
        "details": "See {IERC20-transfer}. Requirements: - `recipient` cannot be the zero address. - the caller must have a balance of at least `amount`."
      },
      "transferFrom(address,address,uint256)": {
        "details": "See {IERC20-transferFrom}. Emits an {Approval} event indicating the updated allowance. This is not required by the EIP. See the note at the beginning of {ERC20}. Requirements: - `sender` and `recipient` cannot be the zero address. - `sender` must have a balance of at least `amount`. - the caller must have allowance for ``sender``'s tokens of at least `amount`."
      }
    },
    "version": 1
  },
  "userdoc": {
    "kind": "user",
    "methods": {},
    "version": 1
  }
}